:020000040800F2
:10000000F0FF0010E1A60608392D06087D09020858
:1000100081A7060881A7060881A70608000000003E
:100020000000000000000000000000003D2D060858
:10003000412D060800000000452D060871AB01089F
:1000400081A7060881A7060881A7060881A70608D8
:1000500081A7060881A706082DAD000835AD000868
:100060003DAD000845AD00084DAD000809AA0008E7
:100070001DAA000831AA000845AA000859AA0008CC
:100080006DAA000881AA000881A7060881A70608B2
:1000900081A7060881A7060881A7060855AD0008B4
:1000A000C1C3000821C30008D1C3000811C3000860
:1000B00049C3000859C3000869C3000851A40008D7
:1000C00055B8000859A4000859B8000881A70608C7
:1000D00081A70608A5A40108A9A50108ADA60108E5
:1000E0005DAD000881A706087D340608E1C300085D
:1000F00099C30008F1C3000889C3000895AA000845
:1001000081A7060881A7060879C3000881A7060809
:10011000B1A70108B5A8010881A7060881A70608AC
:10012000A9AA0008BDAA0008D1AA0008E5AA0008EB
:10013000F9AA000881A7060881A7060881A7060872
:1001400081A7060881A7060881A70608492D060889
:100150000DAB000821AB000835AB0008B9A90108B8
:1001600061A400085DB8000881A7060881A70608F9
:1001700081A7060881A7060881A7060881A70608A7
:0801800081A7060881A706080B
:10800000B94B00EB8002F0B503EBC20553F8322008
:108010005268918ACC074FEA800C74D4CCB2A7077F
:1080200043D5BFF35F8F297F0129CCB200F0E580F3
:108030004100148BBFF35F8F0CEB000403EBC4040F
:10804000257F022D00F005810CEB000403EBC40436
:10805000257F032D08D1A47F34B10C181C4494F85B
:108060007850002D40F05F819488A4B244F480647D
:1080700094800C181C4494F97AE00CEB000403EB98
:10808000C404247F013474450ED1014419440024F2
:1080900081F8784091F87910002940F0D38060444D
:1080A00003EBC00300225A76F0BD660762D414F0D9
:1080B000400400F0E28000EB40011944148A91F979
:1080C0007AE06E6AE4B206F80E405FFA8EF6741C2F
:1080D00064B22F7F81F87A40E51CAF424FEA40013D
:1080E000A64600F046810CEB000503EBC5052D7F8D
:1080F000AC42C2D10C1806F1020E1C444FFA8EFE9F
:1081000084F87AE0B9E7118821F400610904090CC8
:108110001180118889B241F48061118000EB400424
:108120001C44AE7F002184F87A104100002E53D009
:1081300094F87840002C4CD00CEB000403EBC40402
:108140000144247F19440125022C81F8785004D180
:10815000118889B241F4006111800CEB000103EB3E
:10816000C101897E41F001011182604403EBC0032B
:108170001B7FF0BD00EB400E9E44AC7F01218EF8CA
:10818000791000FA01F1002C00F083809EF878400D
:10819000002C40F084800CEB000403EBC404647FEB
:1081A000002C00F0C3800D181D44148895F87AE067
:1081B000A4B244F400740EF1010E14804FFA8EF450
:1081C00085F87A40B2F800E01EF4807FFAD1A64626
:1081D00053E7EC7EFF2CAFD00CEB000403EBC404A0
:1081E000A57E05F0FE051582E27EFF2ABDD0014482
:1081F0001944FF2281F87A20B7E7A97F00293FF4CC
:1082000017AF00EB40051D44410095F87860002E43
:108210003FF40FAF168826F480663604360C1680BD
:10822000BFF35F8F85F87940148B148895F97AE055
:10823000A4B244F4007414809488A4B244F480641A
:1082400094801AE7918821F440710904090C918007
:1082500025E7A47F002C3FF4F7AE0C181C4494F8DB
:108260007850002D3FF4F0AE94F97AE0148824F4AD
:1082700080642404240C14804EE01FFA81FE1EF05A
:10828000800F33D100EB40041C44410094F97AE0A4
:10829000F3E69EF87840002C3FF47DAF83E72C7F17
:1082A000022C14884FD924F480642404240C1480F4
:1082B000178A6E6A9EF97A40FFB237556F6A158841
:1082C000ADB245F400751580E4B2168A651C6DB236
:1082D000F6B27E5595880234ADB264B245F480653D
:1082E0008EF87A4095806DE7B81A002000EB4007C1
:1082F0001F44410097F97A60B6F1FF3F40D02C6AE5
:10830000A45D14822C7F06F1010E4FFA8EFE744597
:1083100087F87AE07FF4B1AE948824F48064240472
:10832000240C9480A9E694F97AE0F5E71488A4B2C5
:1083300044F4807414800C181C44012584F878508F
:1083400094F97A403EE7A4B244F400741480168A8B
:108350006F6A9EF97A40F6B23E55E4B26F6A168AA9
:10836000651C6DB20334F6B264B27E558EF87A4065
:1083700028E7958825F480652D042D0C9580B2E6BC
:10838000E97E1182A97F87F87A4019B9297F0029EF
:108390007FF4EBAE918821F480610904090C91808F
:1083A000E3E600BF1B4B01681B4A03F5727C03E048
:1083B00063452CD053F82C2F9142F9D170B593F826
:1083C00004E0427996450AD0634505D053F82C2F36
:1083D0009142F4D06345F9D14FF0FF3070BD9E4615
:1083E0008468DEF80C50A5424FF0000208D001323C
:1083F000032A0EF10C0EE7D0DEF80C50A542F6D1A0
:10840000DEF81050C668B542F1D150B270BD4FF0E1
:10841000FF30704748C206080000014030B5EAB19D
:108420008E464FEA014C034600F1C005002419684E
:108430009A6841EA0C0142EA0E029A60C3E900140C
:108440000C33AB42F3D1D0F8C030C0F8C44043EA9B
:108450000E03C0F8C030C0F8C84030BD4FEA014E2E
:108460008C46E0E783691969B3F80CC00A6830B438
:108470009C6822F0010224680A60A28992B222EA72
:108480000C02A281027D04681F2A06D96568203A81
:1084900008209040284245D0FEE7256808209040FB
:1084A0002842F9D1202000FA02F2A260264A12786E
:1084B000002A35D01A7E012A39D0D3F8F4200132AF
:1084C000C3F8F420EFF31181502282F31288586828
:1084D0005C6C026822EA04029C6C2243C9B202600E
:1084E00081F31188D3E90C401A6999681D6C0968F9
:1084F00014605061D3E90E40546090600024B3F8DA
:10850000A800D5604C62C862106801242043106046
:108510001C7683F8F1408A899B8913439BB28B8137
:1085200030BC7047202000FA02F2E260BEE7002271
:1085300083F8F120D3F8F8000A68013022F0010234
:10854000C3F8F8000A60EBE70400001010B40C4C0C
:108550006368002B11DD002004F1080C0146DCF8F3
:10856000A03003F1C00259600C339342FBD1636821
:10857000013083420CF5807CF1DC5DF8044B7047E0
:1085800004000010F0B5494C04EB401C9CF8242476
:1085900002B9F0BD464B4FF08C0E0EFB003E93F837
:1085A000E46493F8E5249EF886708CF80A74964289
:1085B0004FF0000C4FEA40158EF886C00ED002EB4B
:1085C000420C03EBCC0C57009CF8E8C40CF1FF3EC6
:1085D000BEF1010F5CD9BCF1030F53D06019A0F8B4
:1085E0000814EFF31182902383F3128890F80A3471
:1085F000B0F8081443EA41030021D2B29BB280F8DC
:108600000A1482F311881A09217882EA13225A4047
:10861000D9B1D0F82044D0F80C14D4F8A040D243FB
:108620001B019BB202F00F0201208840134304F1AA
:10863000C0015A0013F4004F93B202D162680243A2
:1086400062600C348C42F4D1F0BDD0F82014D0F824
:108650000C04D1F8A0401B0100F110019BB202F004
:108660000F0201208840134304F1C0015A0013F4A3
:10867000004F93B202D16268024362600C34A1429F
:10868000F4D1F0BD02F1010C0CF0030CB445A5D0FF
:108690003A4403EBC202131893F8F51400299DD055
:1086A0006319012283F80A2498E700BF0400001030
:1086B000B81A0020704700BF024B03EB401090F83F
:1086C00025047047040000104368B0F8502010B42F
:1086D0001A83EFF31182502383F312884168446CAC
:1086E0000B6823EA0403C46C2343D2B20B6082F309
:1086F0001188D0E907418268036912681C605961DA
:10870000D0E909415C60C46A9960B0F86010DC602F
:108710000023D1625DF8044B0376704710B4037DEB
:1087200001681F2B09D94C68203B202202FA03F371
:108730001C4215D15DF8044B70470C68202202FAE8
:1087400003F31C42F6D00D4A4068002482F84845E5
:1087500002685DF8044B22F0010202608B607047F2
:10876000064A4068002482F8484502685DF8044BD8
:1087700022F001020260CB60704700BFB81A0020EF
:10878000704700BF0B4890F83C1589B101EB4101DF
:10879000002310B4490000F244501C4650F8232036
:1087A000063302B114608B42F8D15DF8044B704778
:1087B000704700BF040000100B4890F83C1589B1C9
:1087C00001EB4101002310B4490000F244501C4663
:1087D00050F82320063302B114609942F8D15DF8B5
:1087E000044B7047704700BF040000100120704721
:1087F000034B00EB400003EBC00090F855057047B9
:10880000040000101F4890F83C35002B39D000229E
:108810002DE9F04300F244531B4E1C4D4FF0500E17
:108820004FF02C0C144607E053F8181B0C6090F81E
:108830003C150132914222DD197C0029F4D05F6899
:10884000B90AA1F5801105EB010952294FF0FE0884
:1088500098BF99F8F483EFF311898EF31288796A3F
:108860000CFB08680131C8F87415B98A89B241F067
:1088700001015FFA89F8B98288F31188D4E7BDE86D
:10888000F083704704000010B81A002048C20608A0
:1088900007EE900AB8EE670A704700BFBCEEC00A48
:1088A00010EE103A98B2704708B51D2011F07EF80E
:1088B00008B183794BB11E2011F078F808B18379A3
:1088C00003B108BD5523C38008BD5523C380F2E71B
:1088D0000D4B0E49DB68DB43C3F30223C3F10403F2
:1088E0000122DBB202FA03F301EB000C1B0103F0DF
:1088F000F0038CF80033430900F01F0002FA00F087
:1089000041F82300704700BF00ED00E000E100E007
:10891000037D1F2B08D90268203B5168202202FAF0
:1089200003F3194214D1704701682022096802FA42
:1089300003F31942F7D00D4A41684FF0000C82F85A
:10894000B4C70A68006822F001020A6083607047B9
:10895000064A41684FF0000C82F8B4C70A68006804
:1089600022F001020A60C360704700BFB81A0020FD
:10897000122301480B80704788010020042301481E
:108980000B8070479C0100202048D0F8103AD0F8A6
:10899000182A30B59B184FF01A040C8001D11C48DE
:1089A00030BD1B4AD0F8141A4FF0000E1046754621
:1089B000B3F1204F4FEA137C0CF130040EF1020E9C
:1089C0002ABF0CF1370C847080F802C0BEF1100F82
:1089D000C5704FEA031300F10200E9D100200446FC
:1089E000B1F1204F4FEA117303F1300C00F1020096
:1089F0002ABF373382F812C093740828D4744FEA20
:108A0000011102F10202EBD1014830BD0070FF1FDD
:108A1000A001002082B01F4B002201920193019B14
:108A20001D4A04330193019B1968936803F00C03FA
:108A3000042B07D0082B0AD0184B194AC3F8B827C3
:108A400002B07047154BC3F8B81702B070475368AF
:108A5000506813F4800F00F03F00536813D1C3F344
:108A600088130F49B1FBF0F101FB03F30A4A0B49EC
:108A70005268C2F3014201325200B3FBF2F3C1F873
:108A8000B83702B07047C3F38813B1FBF0F101FBB4
:108A900003F3EBE75028004000380240B81A0020EA
:108AA0000024F4000123437700207047D0E90B2114
:108AB00008B583690B4483610AB1084690470020DA
:108AC00008BD00BF436A1B681B6A5B685B7802468F
:108AD00013F0010008BF5077704700BFC262816188
:108AE000704700BF704700BF043070470D4B93F8CC
:108AF000C027D3F8BC170244D2B283F8C02793F83A
:108B0000C02708441206C3F8BC0705D593F8C02750
:108B100082F0800283F8C027034B012283F83220C1
:108B2000704700BFB81A0020880100202DE9F047E7
:108B3000144FD7F8C457ED0A1ED00026B04607F2EE
:108B4000FC79D7F8C8371048D3F828A0C7F8F487BD
:108B5000AC19641010234A46E102D0470F280BDD00
:108B60000A4B03F1100C53F8041B013107D1634584
:108B7000F9D12546B542E4DCE802BDE8F087661C81
:108B8000F8E700BFB81A002080220020B42200209D
:108B90001C4BD3F80C18D3F810288A1A322A16D88E
:108BA000D3F824288A4200D37047D3F8182822B378
:108BB0001068928810B444693231224218BF42834F
:108BC0005DF8044B08BF0283C3F82418704793F87C
:108BD0001428D3F8181802F0010219B132B90A6842
:108BE000898811830022C3F8242870470A6889887D
:108BF00051830022C3F8242870473231C3F8241867
:108C0000704700BFB81A0020094A92F81438D2F809
:108C1000182803F001031AB123B9136892881A8344
:108C200000207047136892885A830020704700BF65
:108C3000B81A00204FF40070034B1060D3F830389E
:108C40000B600020704700BFB81A0020002070475A
:108C500001207047012070470020704710B51C6943
:108C600094420DD396468A188C469442996938BF2F
:108C7000A4EB0E0C71446246BDE8104063F01CBAD0
:108C800010BD00BF43F201220321028043F2011212
:108C9000002343F2013C017282804FF6FF710122F2
:108CA000A0F802C043818381C3810182827470472E
:108CB000154BFF224FF0FF3CF0B5C27002710272FB
:108CC00042724273827303F10C076646172516241D
:108CD0004FF0150E002202EB820281189F4200F82D
:108CE00002E04C708D70CE7081F804C00BD093F907
:108CF000062093F807E01C7A5D7A93F90A6093F9ED
:108D00000BC00633E7E7F0BD90C606084FF0000C35
:108D100001210222032380F805C08171C271037210
:108D2000704700BF00230222037043708370C3703A
:108D3000027170473022032302704370704700BFF6
:108D400041F2014200234FF4007C4FF49A714280BB
:108D50000122A0F800C0C180038143818381C281C8
:108D6000704700BF4FF0010C2C210222002380F835
:108D700000C041708270C370704700BF4FF4F07143
:108D800040F22E4C01804FF47A71A0F81EC041844D
:108D90004FF4FA6C4FF4F561A0F820C0818440F2E2
:108DA000262C43F63811A0F81CC0418143F2367CD2
:108DB00042F62A310023A0F808C0C18141F61F0CF9
:108DC0000E210722A0F80CC080F8261040F2012CDA
:108DD000437183714374438240F2034140F205635F
:108DE0008270A0F814C0C18203838276704700BFEE
:108DF0004FF0280C29212A22FF2380F800C041705F
:108E00008270C370704700BF4FF0200C0021812298
:108E1000012380F800C04FF0350C80F801C081704C
:108E2000C170027142718371C37170470023037076
:108E300043708370C3707047002303704370837066
:108E4000C3707047002306214FF47A72C0E90123F2
:108E500001700373704700BF70B5224B93F8E42490
:108E600093F8E5349A4237D11F4D95F80436E3B1B3
:108E700095F808461D4B002040F20D3CB4B19A68AD
:108E8000998951601668196846F001061660A1F8C4
:108E900048C08A8992B242F480728A8195F8042689
:108EA0000130824203F11803E8DC70BD1A681188B2
:108EB00021F080010904090C11809988D162118880
:108EC00089B241F0800111805462998A96893143B8
:108ED00089B291819C82E1E75EF014FC0028C3D145
:108EE00070BD00BFB81A0020040000101823002035
:108EF0002DE9F0411E4B93F8E42493F8E5349A42AF
:108F00002FD11C4F7D68002D12DD3846002410F84B
:108F1000086BA046013416B1037E012B1CD00269F8
:108F20001368AC4243F0010300F580701360F1D187
:108F300011F06AFED7F80C46002C0BDD0E4A02EB4E
:108F4000C404116893888889083203439BB2944211
:108F50008B81F6D1BDE8F08180F8F080FFF7B4FB9B
:108F6000DDE75EF0CFFB0028CBD1BDE8F08100BF8C
:108F7000B81A002004000010140600102DE9F04F6C
:108F8000037D02681F2B83B0044609D95068A3F102
:108F900020052021A940014207D103B0BDE8F08F90
:108FA0001068202199400142F7D05149514D49683C
:108FB000C5F8301695F80816A7694F4E19BB8C21D5
:108FC00001FB0761D1F88C00D1F804E1D0F800C0B2
:108FD000DEF80000B1F8908020F00100CEF800002B
:108FE000BCF80C1089B221EA0801ACF80C10297801
:108FF00001BB1F2B6FD9A3F1200120238B40D3602D
:1090000003B0BDE8F08F8C2101FB0761D1F88C1013
:10901000D1F810C00868DCF8001021F00101CCF88C
:109020000010818921F480710904090C818129785B
:109030000029DED04FF08C0808FB07F806EB080388
:109040002E49D3F804A1D3F88C200193504608F19F
:109050001809D2F800B0894459F070FA019BD5F88C
:1090600038262649012083F8D800002A3AD0BBF8D8
:1090700000309BB243F08003ABF8003008F1740875
:109080004FF0FF334144CBF82C30584659F0C0FC28
:109090008C2303FB076600234946C6F8A8305046D8
:1090A00059F0E2FAD6F8043116225A601A6842F0F2
:1090B00001021A60D6F88C20B6F8903012689189B7
:1090C0000B439BB293810A49237D49682268C5F806
:1090D00034161F2B8FD8202101FA03F3936003B0BD
:1090E000BDE8F08F11F090FD0449C5F83806BEE7E1
:1090F000001000E004000010B81A00203C1B002003
:10910000094910B54B6C094C43F480434B64402231
:10911000002104F5126063F032F84FF0FF33C4F819
:109120006039C4F8633910BD00380240B81A002015
:10913000F8B5164D1648174F00214FF41A7263F018
:109140001EF805F688064FF0804105F66C043A4695
:10915000002301E054F8332091420BD001330E2B51
:10916000F8D100201C355DF0DBF9B5420CD055F884
:109170001C1CECE7084A02EBC3031C3593F8E80C0F
:109180005DF0CEF9B542F2D1F8BD00BFC0C6060809
:10919000042000200000014048C20608114A0023B4
:1091A00030B50360838002F10C054FF448744FF032
:1091B000270E4FF0260C03EB430300EB430100F8AE
:1091C00013C081F801E0D3788B70AA428C8008D05C
:1091D00092F9063092F807C092F808E054890632F6
:1091E000E9E730BD9CCF06082DE9F04111F00CFDF8
:1091F0001F4F204E05464FF000087C68002C2ADDEA
:1092000000231A4607EB0321013391F8F9109C4221
:1092100042EA0102F6D142EA0804E4B290467368D9
:10922000C3F30803A3B9EFF311838BB916F0A4FBC2
:10923000431BB3F5FA6F02DCB8F1000FDDD124B1A6
:109240000D4B93F86729542A09D02046BDE8F081D8
:1092500011F0ACFCECE744464FF00008DFE7B3F850
:109260006C290132A3F86C292046BDE8F08100BFCB
:109270000400001000ED00E0B81A0020BA4B1B7883
:109280000BB9012070472DE9F04FB84DB849D5F81A
:109290000C28B84BA1FB02125209A3FB023A4FEA79
:1092A000DA0A0AEB8A0AA2EB4A0A85B0AE4A5FFAEA
:1092B0008AF3039302F61C1302F23C670193002326
:1092C00007EB8A0A02F581699846A74BD3F8243A3E
:1092D000434540F31481D9F81830D9F80460D3E934
:1092E0003A34029311F090FC029B95F867C9029002
:1092F0004FEA860E95F878090EF1085E04F1806158
:109300000EEB431E3939BCF1540F0EEB81110EEBFD
:10931000801301D1A5F86E09994240F266811A685E
:10932000002A00F05A811A6C002A00F06C81D3F8F0
:109330008020002A00F06981D3F8C02003F58073F3
:10934000002AE9D1A3EB0E0E99424FEAAE1E40F27D
:109350004C81A4EB0E0145294FF0000428BF4521A4
:1093600003EB81119B46204626460DE01A6C002A2D
:1093700040F0CD80D3F88020002A40F0F380D3F86D
:10938000C02003F580732AB9994206D91A68002AC9
:10939000ECD04033994200F2BE80112E344640F2A8
:1093A0002881D6F1150200F124817349029E4B6B8E
:1093B0009E45D5F87C3938BFC1F834E0F11A002950
:1093C00017DB03F5F42303F590739E4288BF029BDD
:1093D000694988BF0533C5F87C39674B5B6B052B42
:1093E00086BF053BDBB2002385F878394FF0FF33A9
:1093F0004B6342B100FA02F2C4F11404012000FAF6
:1094000004F444EA02005D4BC0F3C43203EB820271
:10941000D2F8681D00F01F0203EB8202D2F8682D1B
:1094200042EA0131C0F3441203EB8202C0F384200C
:1094300003EB8000D2F8683D41EA0311D0F8683DA3
:1094400041EA032181EA112383EA131303F00F0396
:109450000F2B40F0B080B1F5803F80F0AC80BCF1C4
:10946000540F4FEA111104D1B5F868390133A5F84A
:1094700068393D4AD2F82439B1F5606F03F1010330
:10948000C2F8243900F0D380019B998197F85830B5
:109490000398834210D0DAF808203B689B1A3B609F
:1094A000DAF830207B689B1A7B600023CAF808300A
:1094B000CAF8303087F858003B6801333B60DAF86F
:1094C00008300133CAF808304FF6FF73994207D1CC
:1094D0007B6801337B60DAF830300133CAF8303012
:1094E000019B08F101081433B8F1080F07F15C077C
:1094F0000AF15C0A019309F120097FF4E6AE1A4AE9
:109500000123012082F8203A05B0BDE8F08F8033B6
:1095100099427FF642AF5A469A1A9211541C184A41
:1095200082FB04B2A2EBE472012AB8BF0122904090
:1095300001241644013A04FA02F210431C46226840
:1095400002B3226C002A62D0D4F88020002A60D0B6
:10955000D4F8C02004F58074AAB1A142EFD89B468C
:10956000234611E7C03315E704000010B81A0020A5
:109570001F85EB51CDCCCCCC8801002048C2060819
:10958000565555554034A142E9D9E31A9B115A1C4E
:109590002F4B83FB02B3A3EBE273012BB8BF012374
:1095A00098401E440122013B02FA03F3184323466C
:1095B0009B462346E8E6BCF1540F2CD0254AD2F84E
:1095C00024390133C2F82439224AD2F82039013330
:1095D000C2F820394FF6FF7158E74033A3EB0E0E67
:1095E00099424FEAAE1E3FF6B4AE10B1013885F88D
:1095F0007809BCF1540F7FF473AFB5F86A390133C1
:10960000A5F86A396CE780339CE6C0339AE680346B
:10961000B9E7C034B7E7B5F868390E4A0133A5F8A1
:109620006839D2F824390133C2F82439CCE795F8E7
:10963000E53403EB430305EBC303434493F8F534EC
:109640000D2B7FF421AF019A802393771EE700BF93
:10965000565555550400001010B5044661F0B4FF8E
:1096600081B22046BDE81040FEF78CBF38B50B4DE7
:1096700000EB400005F2445303EBC00393ED027A84
:10968000D3ED037AE7EE007AC4002C44B0EE670A0B
:1096900061F09AFFD4F84435186038BD040000101A
:1096A0000C4AF8B5136855692B4003EA000555616B
:1096B0007DB1094F0126B5FA85F4C4F11F0407EB0B
:1096C000840306FA04F4D3F8200903689847A543F5
:1096D000F1D1F8BD003C0140B81A0020038A2DE901
:1096E000F047B0F80C901FFA89F919EA03092BD05A
:1096F00005460E464FF000474FF00008B9FA89F3CF
:1097000027FA03F2D24391B21B3B298209EA0209EC
:10971000042B16D8DFE803F0352C231A0300B36AB4
:10972000002B37D003F1FF3A1FFA8AFAC6F82880D7
:10973000746A34B123682046514698476468002C07
:10974000F8D1B9F1000FD9D1BDE8F0877068696B25
:10975000036889B29847B9F1000FCFD1F4E7B06838
:10976000A96B036889B29847B9F1000FC6D1EBE73E
:10977000F068E96B036889B29847B9F1000FBDD171
:10978000E2E73069296C036889B29847B9F1000FA4
:10979000B4D1D9E7E96A1FFA81FAC9E710B5044CD8
:1097A00004480A46214659F059FA204610BD00BF28
:1097B00038240020745407080A4608B5054920B922
:1097C000054859F04BFA034808BD044859F046FAD9
:1097D000004808BD3824002088540708B054070802
:1097E00010B5044C04480A46214659F037FA204681
:1097F00010BD00BF38240020D854070810B5044C11
:1098000004480A46214659F029FA204610BD00BFF7
:1098100038240020E454070838B590F82830012B8C
:10982000044604D0407F40B10023637738BD406ACE
:1098300003681A7B92B9637F0BB9012038BD0A4DCA
:109840000A49022305F528620FF0ECFC95F8813AED
:1098500003F0010383F001006377E7E71B6A002B45
:10986000E9D0002038BD00BFB81A0020C001002098
:109870002DE9F0410446154E90F82800637F144FFF
:1098800006F52868012805D00BB100236377012075
:10989000BDE8F081606A05682A7B82B9002BF6D0AA
:1098A0000223424639460FF0BDFC96F8813A03F098
:1098B00001036377002BEAD094F82800E2E72A6AD4
:1098C000002AE8D1002BE2D0EAE700BFB81A002056
:1098D000C0010020F0B511F0010583B00AD190F865
:1098E0002860012E044607D0C368B3F1807F01D9F8
:1098F0000123237703B0F0BD0A4B476AD3F8840AEB
:109900000FF090FDE368B880B3F1807FF2D9B72102
:109910008DF80410267733462A46384601A90FF001
:1099200081FCE7E7B81A002070B5224A224C234B8D
:1099300094B00546CDE90042214A0992A4F10802FB
:109940000A922A7F0493201D0023CDE905039A4241
:10995000CDE90E330B931093139314BF052004200D
:1099600011936B6A0C9002200122029018688DF806
:109970000C200E4607928DF820208DF834208DF8AB
:1099800048205FF09BFD2B7F93B1330E04F8073C1A
:10999000063C320C330A22706370A670686A69460E
:1099A0000FF0A2FB6B6A18685FF088FD14B070BD01
:1099B000073CEEE740250020CC010020C58A0008C6
:1099C000A58A000810B5044694B05022064968469E
:1099D00062F072FB606A69460FF086FB636A186882
:1099E0005FF06CFD14B010BD30D006082DE9F041D9
:1099F0000446406A00681E460F4690465FF05EFDD2
:109A0000237F002B40D02B4DA0690523C5F884305F
:109A1000030E85F84D3005F14E039870020C000AD4
:109A200058701A703B68C5F890300020D8F80030A4
:109A3000C5F89830012E2363C5F8A8002CD0022E5B
:109A400020D1D8F80420C5F8A000796885F89C00DA
:109A5000C5F8A41013441849C5F8AC2001202363AD
:109A600085F8B000C5F8B410144B617F606A03F14B
:109A70001402002914BF194611460FF035FBE36AA2
:109A800093B1206BBDE8F0810A4DA0690423C5F8AD
:109A9000843005F14D03C0E7074B85F89C60C5E9AC
:109AA0002830C5F8AC00DFE7636A18685FF006FD90
:109AB000E7E700BF88010020AD8A0008DC01002034
:109AC00000B583B081610192049A0093C2620123C0
:109AD0006A4601A9FFF78AFF03B05DF804FB00BFE7
:109AE0002DE9F0430446406A344D006895B00E46B7
:109AF000914698465FF0E2FC314B0193314B049361
:109B000005F1D4030093217F0223029305F1CC02D7
:109B1000012300278DF80C3005920697002936D0D6
:109B20008DF834308DF84830CDE90977330ECDE922
:109B30000E77CDE9107785F8CD300523CDF82C9040
:109B40008DF82070CDF830801397CE350793330C05
:109B50001D4F2B70330A6B70AE70D7F8840A656A9C
:109B60000FF060FC637FA88033BB05A928460FF087
:109B7000BBFA636A18685FF0A1FCD7F8900A0FF08F
:109B800051FC636A9880404615B0BDE8F0838DF8BB
:109B900034308DF848300423CDE90911CDE90E1198
:109BA000CDE91011CDF82C908DF82010CDF8308033
:109BB0001391CD350793CAE76946D7E7880100209E
:109BC00044250020C58A0008B81A00202DE9F04776
:109BD000089F884615460021202204461E4662F052
:109BE000CEFA4FB13B68E3811B0C23827B687A89F4
:109BF000E3821B0C6282238340465FF071FEEB061A
:109C000019D4431EB8B108EB000701E0013B12D3A1
:109C100017F801CDBCF12E0FF8D1C01A421E032A4D
:109C2000A8BF0322082B03F1010AA8BF082391460D
:109C3000C2441A4606E008280246C246A8BF0822C7
:109C40004FF000094FF0203341462360636004F178
:109C50000807204662F030FA174B23815146BB704B
:109C60004A46384662F028FA611EE31D11F801CF1A
:109C7000ACF1610EBEF1190F9CBFACF1200C81F864
:109C800000C08B42F2D1384604F10B0110F8013BC1
:109C9000A3F16102192A9CBF203B00F8013C8842D5
:109CA000F4D118232373330CA382E572099B6683D6
:109CB000E361BDE8F08700BF2020200008B559F01F
:109CC0009FFB0C4B93F8991D29220129A3F8F22A36
:109CD000A3F8FA2A01D0012008BD0748C3F89C0D5B
:109CE00000F120014C305CF02BF8044B002083F88D
:109CF000230008BDB81A00206002002000ED00E03B
:109D00002DE9F04FDFF88894D9F80C08C9F810084D
:109D100087B0002B00F0DA8001F5FE781344DFF8FD
:109D200074B40393164601F12007C24621E0002EC9
:109D300064D0D9F83C38B34200F0CC80D9F8383838
:109D4000B34200F0FF80D9F84038D9F84418B34244
:109D50004BD8B14200F29981711A20465BF09EFF08
:109D6000039B01369E4207F500770AF5007A00F062
:109D7000AD80D9F84858B542A7F12004D7D8751B53
:109D8000D9F8588805F00702EB080492D8F830207B
:109D90000233934203D3D8F8382093420BD941467B
:109DA000184605935BF04AFF059B8046002800F0AB
:109DB0008C81C9F8580898F80420002A40F03481B2
:109DC000D8F82850002D00F07981D8F830209B1A5F
:109DD000049A02EBC303D8F80C20204602EB43227E
:109DE0004FF400714346A847BAE7B142B4D92046C0
:109DF0004FF40072002162F0C2F9B1E74FF4007233
:109E00003146204662F0BBF9802387F89E310C234F
:109E100087F8A231D9F83838D44AD9F83018C4F8BC
:109E2000C6319342C4F8CA1100F33481D04AD14CF0
:109E300082FB03021A44D817C0EB621284FB02545F
:109E4000CD4D85FB03C5C0EB2530C2EB821587F8ED
:109E5000A1015B1B801020F03F0001330343144439
:109E600087F8A031D317C3EBE4142244BF4B87F823
:109E70009F214A1E9A4200F31981BD4BBD4883FBC6
:109E800002311144D317C3EB611180FB0140BA4C7E
:109E900084FB0254C3EB2433C1EB811487F8A53152
:109EA000121B9B1023F03F0301321343084487F831
:109EB000A431CB17C3EBE010014487F8A31155235D
:109EC00087F8DE31AA2387F8DF3149E7002007B0A1
:109ED000BDE8F08F4FF0FF3384F8EC3184F8ED31BA
:109EE00084F8EE3184F8EF31D9F85038C4F8E8310D
:109EF0005223237063706123A37084F8E7314123F8
:109F00000025E37084F8E631722384F8E43184F8A4
:109F1000E5314FF4F0722946A7F11C0062F02FF9E9
:109F20005523C7F8D051C7F8D451C7F8D85184F891
:109F3000FE316FF0550384F8FC5184F8FD5184F82C
:109F4000FF310DE700214FF40072204662F017F94F
:109F50008A4A03CA47F81D0CEB2007F8200C58204A
:109F600007F81F0C902047F8191C07F81E0C002357
:109F700002220821F820E372227307F8131CA2734F
:109F8000E37307F8102C07F80B0CD9F8380884F89D
:109F90002C20D9F830286376121A2262D9F84008AA
:109FA000D9F84428E376121A3F2020764FF0FF308C
:109FB000A0763E20207701206377A377E37784F8AB
:109FC0002D3084F82E3084F82F30626284F830000F
:109FD00084F8313087F82610802187F82010292155
:109FE00087F82210942187F823100E2187F8241077
:109FF0000D21634A87F82510552187F8DE11AA2123
:10A0000087F8DF1103CA5F4BC7F82700C7F82B108A
:10A0100003CB1388A7F82F309378C7F83200C7F81E
:10A02000361087F831309BE64FF40072002120464D
:10A0300062F0A5F8049B002B4ED1D8F84030002BDD
:10A0400000F0AA80049AD8F830304F49CDE90022B8
:10A0500020461122FFF7BAFDD8F840301A6C002ACA
:10A0600000F0AD80049A1B6BCDE900224749112214
:10A070003846FFF7ABFDD8F8448007F120044FF4D1
:10A08000E075B8F1000F3FD16AE6F11A20465BF0A7
:10A0900005FE65E6FF2387F89F3187F8A13187F831
:10A0A000A031324B4A1E9A427FF7E7AEFF2387F872
:10A0B000A33187F8A53187F8A43100E72946204667
:10A0C0004FF4007262F05BF84AE6A7F1240343F80C
:10A0D00004BF9A45FBD143E6D8F84030049AD8F83B
:10A0E0004480002B0CBF01230223C3EB021543461F
:10A0F000002B3FF435AE013D9B6CF9D198464FF4EF
:10A100000075002B3FF42CAE254420342346203527
:10A110004446049698460EE05CF81C1B236BCDF871
:10A1200000C000260196FFF751FDA46C08F120083D
:10A13000CCB1A84517D02379A44604F11C0E1122F6
:10A14000A8F12000002BE7D162792669236B2168F2
:10A1500042F02102CDE900E6FFF738FDA46C08F1DA
:10A160002008002CE5D1049EFAE500BFFF03FB00A8
:10A17000832008828180808097554541FC540708E0
:10A180000855070814550708F4540708F854070839
:10A19000B81A0020DEADBEEF049BD9F83418CDE923
:10A1A000003320460822FFF711FDD8F84480B8F1AB
:10A1B000000F3FF4D5AD3C464FF4F075A4E7049B87
:10A1C000CDE9003352E700BF144B154910B50446E2
:10A1D00018681B79206284F82430152204F12500C8
:10A1E00062F01EF80F4B93F8A02D4FF0010E84F88B
:10A1F0003AE012B984F83B2010BD03F6A45CBCE839
:10A200000F0020606160A260E360BCE80F0084F88A
:10A210003BE020616161A261E36110BD2055070848
:10A2200028550708B81A0020084B10B5D3F8C43DCC
:10A2300018440C46807D0FF0B9FB18B18288036882
:10A240000CB11A8310BD5A83FCE700BFB81A002076
:10A2500010B42A492A4A91F804367BB3D2F86048F0
:10A26000A04239D0012B29D0D2F87848844239D085
:10A27000022B23D0D2F89048A04235D0032B1DD01A
:10A28000D2F8A848A04231D0042B17D0D2F8C04849
:10A29000A0422DD0052B11D0D2F8D848A04229D009
:10A2A000062B0BD0D2F8F048A04225D0072B05D0C2
:10A2B000D2F80849844208BF07230ED003F1010CED
:10A2C00081F804C603EB430102EBC1025DF8044BC5
:10A2D000C2F86008184670470023DBB218465DF8E4
:10A2E000044B70470123F8E70223F6E70323F4E762
:10A2F0000423F2E70523F0E70623EEE7040000104D
:10A30000B81A002038B5424C8C2303FB004393F865
:10A31000933003B938BD94F8E4C494F8E5349C450F
:10A320000ED003EB430204EBC20292F8E8E40EF114
:10A33000FF35012D4FEA430246D9BEF1030F3ED04F
:10A340008C2202FB0042A2F88410EFF311819023CB
:10A3500083F31288B2F8845092F8863043EA4503BA
:10A360000025C9B29BB282F8865081F31188294931
:10A370001A090D7882EA13225A4005B1D2431B0113
:10A380009BB202F00F021A4391F808365BBB8C2394
:10A3900003FB0044D1F8283AD4F80C010121984776
:10A3A000D4F80811B4F890508A8AD4F804312A43BA
:10A3B0008A8258601A6842F001021A6038BD5D1C3A
:10A3C00005F003056545BBD0134404EBC303034408
:10A3D00093F8F5140029B3D08C2303FB004301222A
:10A3E00083F88620ACE78C2303FB0044D1F8285A7D
:10A3F000D4F88C30D4F808115B79086903F0FC03B9
:10A4000018440421A847D4F808318000988138BD49
:10A41000B81A00200400001043680B4A23F0407370
:10A4200023F4807343F48073436083681A4042F0DE
:10A4300002028260C36A0139CAB223F4700141EAA0
:10A440000251C162704700BFFDF7FFC0704700BFF7
:10A450000020FDF7D5BD00BF0120FDF7D1BD00BF35
:10A460000220FDF7CDBD00BF10B1036882881A83BA
:10A47000704700BF30B1036882881B691A4214BF5D
:10A4800001200020704700BF10B1036882885A8302
:10A49000704700BF10B404698269E46841681460C1
:10A4A0004024D460446900230C31C2E90433C2E97A
:10A4B0000633C2E90833C2E90A33C2E90C339360B8
:10A4C0009363516084B1C269E0689363C2E9023367
:10A4D000C2E90433C2E90633C2E90833C2E90A33E8
:10A4E000C2E90C33C2E900015DF8044B704700BFBC
:10A4F000436800221A60037D1F2B08D9203B2022CD
:10A50000016802FA03F343F01803CB60704720227E
:10A51000016802FA03F343F018038B60704700BF31
:10A520000268136A11B1D96901B3143330B49C685D
:10A530001D689169DDB14FF4806088618D601046BF
:10A5400040690C6180B15968D369D9B10A464FF4AA
:10A5500080619A609961224312F0010F14BF0022BA
:10A560004FF400521A621C6130BC704770478D6115
:10A57000064D4FF0FF0C85F840C105F5A075006849
:10A580008D60DDE7024A9A609961E4E78801002066
:10A59000802800200168F8B5D1E9042304465568F5
:10A5A000002B49D09861107D5E681F2831D817684C
:10A5B000202202FA00F040F01800B8601A7D1F2A2D
:10A5C00032D91868203A202303FA02F242F0180226
:10A5D000C26000232B6033603368896943F0100345
:10A5E0003360284658F040F823683046D96958F05F
:10A5F0003BF82B68226843F001032B6033685268F4
:10A6000043F00103336093889BB243F003039380CC
:10A61000F8BD17682038202202FA00F040F0180038
:10A62000F8601A7D1F2ACCD81868202303FA02F29A
:10A6300042F018028260CCE7137D90611F2B1CD87A
:10A640001068202202FA03F343F01803836000230A
:10A650002B602B68896943F010032B60284658F063
:10A6600003F82B68226843F0010352682B6093883B
:10A670009BB243F002039380F8BD1068203B202278
:10A6800002FA03F343F01803C360E0E72DE9F04159
:10A690007F4D804E07463C6897F888806368B8888D
:10A6A000012284F824201A8822F040021204120C9D
:10A6B0001A802289824223D0198821F038010904A6
:10A6C000AB424FEA114100F0BF80734A934200F061
:10A6D000BB800246B2F5807FA8BF4FF48072022A89
:10A6E000B8BF0222002A92FAA2F2B2FA82F208BF9E
:10A6F0004FF0FF32013A41EAC20292B21A80208141
:10A70000397BA27A8A420CD01A8822F00302120402
:10A71000120C1A801A8892B2002900F092801A80D6
:10A72000A1721A8892B242F040021A80226A91689D
:10A73000002900F0A3804FF0000C1432E64652F8D6
:10A74000100C8E4400EA060120B1B1F1805F23D0E5
:10A75000616909B352F8140C143200EA060110B111
:10A76000B1F1805F18D052F80C1C0CF1010C0029DB
:10A77000E5D1227B82B1B8F1000F0DD0BCF1010F01
:10A780006FD8BEF1070F6CD80CEB8C018900226AE0
:10A7900011440A7B002A64D0226A92684FF00008B4
:10A7A000002A53D0B8F1000F02D098F80C2022B143
:10A7B000BA6812B1116892884A83226AD2F800E01E
:10A7C000226A5168226A9268501E9AB1BEF1000F47
:10A7D00023D01EF801CB1A899207FCD5A3F80CC030
:10A7E0001A89D207FCD59A8992B209B101F8012BD6
:10A7F0000138EBD2236A1B7BE3B9236A1B697BB167
:10A80000236AD7F894001B69984701280DD00228C5
:10A8100006D100232362BDE8F0814FF0FF0CDAE798
:10A82000D4F82080236A14332362236A9B686BB1B7
:10A830006368B7E7BB68002BDFD01A689B88138377
:10A84000DBE742F003026AE7420843E7236A1B683A
:10A85000DBB1236AD3E9007222620022C3E900223D
:10A8600019E700213846FFF75BFEBB6813B11A6891
:10A870009B8853833846BDE8F0418BE6227B002A53
:10A880008AD0B8F1000F82D186E72362C3E700BF08
:10A89000003800400000FFFF003C0040D3B2012B15
:10A8A00023D870B502EB4202114C4FEA820E4FF0F2
:10A8B000000C22460EF10805634604E00133152B17
:10A8C00011D012F81CCF6045F8D192F801C08C4528
:10A8D000F4D15659002EF1D0C3EBC3030EEB830322
:10A8E0000433E01870BD002070BD0020704700BF29
:10A8F00080D0060810B40C4C002304F6CC5C01E0B8
:10A90000152B0CD003EB430201331CF802108142DB
:10A91000F6D122445DF8044B92F9CE0D70474FF00A
:10A92000FF305DF8044B7047B81A0020D3B2022BF9
:10A9300021D830B502EB4202104D114C4FEA820C87
:10A940000CF10C0E2A46002304E00133172B10D023
:10A9500052F82C4FA042F8D114798C42F5D152F81C
:10A960000E40002CF1D02C2202FB03C30833E81860
:10A9700030BD002030BD0020704700BF48C206082F
:10A9800000000140002838D030B51C4D90F804C0BC
:10A99000002305F6CC5401E0152B2CD003EB430229
:10A9A0000133A15C6145F7D12A44046892F9CE3D98
:10A9B00090F805E0DAB2022A1DD803EB43031048F1
:10A9C00010494FEA830C02460CF10C05002304E009
:10A9D0000133172B0FD052F82C1F8C42F8D111796C
:10A9E0007145F5D151590029F2D02C2202FB03C345
:10A9F0000833184430BD002030BD7047B81A00201D
:10AA000048C20608000001400348D0F8543113B191
:10AA100000F5A27018477047880100200348D0F85D
:10AA2000783113B100F5B4701847704788010020E1
:10AA30000348D0F89C3113B100F5C6701847704731
:10AA4000880100200348D0F8C03113B100F5D87058
:10AA500018477047880100200348D0F8E43113B14B
:10AA600000F5EA7018477047880100200348D0F8C5
:10AA7000083213B100F5FC701847704788010020B8
:10AA80000348D0F82C3213B100F50770184770470F
:10AA9000880100200348D0F8503213B100F510703F
:10AAA00018477047880100200348D0F8743213B16A
:10AAB00000F5197018477047880100200348D0F846
:10AAC000983213B100F522701847704788010020B2
:10AAD0000348D0F8BC3213B100F52B70184770470B
:10AAE000880100200348D0F8E03213B100F534703B
:10AAF00018477047880100200348D0F8043313B189
:10AB000000F53D7018477047880100200348D0F8D1
:10AB1000283313B100F546701847704788010020AC
:10AB20000348D0F84C3313B100F54F701847704705
:10AB3000880100200348D0F8703313B100F5587035
:10AB40001847704788010020094B0A4A013800EB7A
:10AB5000C00003EB8000116BD0F8443106488342FB
:10AB60000CBF4FF400134FF480030B431363704783
:10AB700088010020003802400060024070B50138B2
:10AB80003C4C3D4D00EBC00C04EB8C0C9646DCF8C5
:10AB900044613A4AAE420CBF4FF400154FF48005B1
:10ABA000166B35431563CCF85411CCF85C3134493D
:10ABB000DCF848318B424FEAC0023ED001F580619B
:10ABC0008B423AD0A1F57A718B4247D001F5806172
:10ABD0008B4243D0A1F57A718B4241D001F580615F
:10ABE0008B423DD0A1F57A718B4235D001F5806161
:10ABF0008B4231D0A1F57A718B4233D001F580615F
:10AC00008B422FD0A1F57A718B422DD001F5806156
:10AC10008B4229D0A1F57A718B4227D001F5806152
:10AC20008B4223D0A1F57A718B4221D0154D01F5CD
:10AC300080618B4218BF002500E0134D104404EBE7
:10AC40008003CEF38711C3F8645193F85901BDE82E
:10AC5000704000225BF072BA0C4DEFE70C4DEDE74F
:10AC60000C4DEBE70C4DE9E70C4DE7E70C4DE5E744
:10AC7000044DE3E7880100200060024000380240F4
:10AC80001060024000800028208000100080001822
:10AC90000088001000802010208000200088002004
:10ACA000008020200D4B984214D0A3F58063984279
:10ACB00010D003F5804398420CD003F5806398428E
:10ACC00008D003F58063984204D0054BD3F8B80749
:10ACD00040087047024BD3F8B807704700040140A2
:10ACE000B81A0020800AA0F58010522808D8054B19
:10ACF000184490F8F4330D2B02D8034AD05670470D
:10AD00000020704748C206080456070858B18388D7
:10AD10004FF00042B3FA83F332FA03F303D002494F
:10AD20000A6813430B607047003C01400120FEF7A6
:10AD3000B7BC00BF0220FEF7B3BC00BF0420FEF783
:10AD4000AFBC00BF0820FEF7ABBC00BF1020FEF771
:10AD5000A7BC00BF4FF47870FEF7A2BC4FF47C4054
:10AD6000FEF79EBC30B50C4683B0054618B30368A9
:10AD700003F13F4303F57E039B0A104A134413F883
:10AD8000740C5BF0CDFBA988009104F00303C4F3BD
:10AD900081028DF8043028688DF80520C4F3001373
:10ADA0006946C4F341148DF806308DF8074057F01A
:10ADB0002DFB03B030BD4FF0FF33DEE740D3060874
:10ADC00000B1CFE7704700BFF8B5CB7813B90025C5
:10ADD0002846F8BD00F110070C460646897838462B
:10ADE0000EF04AFB05460028F1D0E0780EF0DEFDBB
:10ADF000B06123780133DBB210B1C37122238371B8
:10AE00000921FFF7DDFFB069FFF72EFB0D4AD2F8ED
:10AE10000C38632BFBD90C480EF004FBB08238468B
:10AE200052F048FB074630B9E0780EF0BFFD0EF057
:10AE30001DFE3D46CCE7306986F8D8705EF042FBD7
:10AE4000C6E700BFB81A002040420F000B4B10B5F8
:10AE5000D3F8C43D03440446987D0EF0A7FD60B1CD
:10AE60002E228271621CC2710121FFF7A9FF2046C8
:10AE70000021BDE81040FFF7D7B910BDB81A002077
:10AE800070B50E4CD4F8246A002E15DD04F58164EB
:10AE9000002503E0B54204F120040DD0237F0135E5
:10AEA000002BF7D0E0680028F4D0217DFFF75AFF8F
:10AEB000B54204F12004F1D1012070BD040000105E
:10AEC000F8B5037D85691F2B04464DD90168A3F1B0
:10AED00020024E6820209040064234D01023934038
:10AEE000C860CB604B68D340DE0700F18380EFF38E
:10AEF0001183502282F312882A6C1168C9075AD430
:10AF0000516889B271B9D5E90960864250D0AF69FC
:10AF10000744D76073D9301A80B25060AE62002106
:10AF200085F86410116841F00101DBB2116083F310
:10AF3000118895F86430002B44D1237D1F2B27D92D
:10AF40002168A3F120024C6808209040044200D000
:10AF5000C8604C68042000FA02F2224203D0203B71
:10AF600000FA03F3CB60F8BD026820201668984011
:10AF7000064219460ED010219940906091601168E8
:10AF8000D940C807B3D5012101FA03F39360AEE7B6
:10AF900022681946106808238B40184200D093603D
:10AFA0001068042303FA01F10142DCD09160F8BD7E
:10AFB000012285F86420DBB283F3118895F86430B0
:10AFC000002BBAD095F87C30002BB6D195F87100E3
:10AFD0000EF0ECFC2A6E938923F008031B04012178
:10AFE0001B0C938185F87C100028A6D02021FFF748
:10AFF000B9FEA2E7012303FA02F2CA6077E72E69DD
:10B00000301A80B25060A96289E700BF70B50C4663
:10B0100082B015460646002839D0036803F13F4345
:10B0200003F57E039B0A1B4A134413F8740C5BF070
:10B0300077FAB2880092B2FA82F304F003028DF834
:10B040000420C4F3810230688DF80520C3F11F038A
:10B05000C4F30012C4F341148DF80740C3F3CC04C9
:10B0600000EB840403F007038DF806209B00226A9E
:10B070000F269D4006FA03F322EA03032362226AA5
:10B0800015436946256257F0C1F902B070BD4FF013
:10B09000FF33C8E740D3060800B1B7E7704700BFE9
:10B0A0002DE9F043774D05EB001683B0D6F80C3E42
:10B0B000002B00F0938004464FEA001896F8140E17
:10B0C0005BF02EFA96F8143E590903F01F0203298B
:10B0D0004FF0010303FA02F300F09880042900F016
:10B0E000858002297DD005EB0803013493F8100E0A
:10B0F0000EF05CFCE4B2814610B112238371C4717E
:10B1000005EB080393F8110E0EF050FC074610B142
:10B110001323C471837105EB080393F8120E0EF02C
:10B1200045FC064610B11423C4718371454448465A
:10B1300095F8132E01924A21FFF7AEFF019A384687
:10B140002A21FFF7A9FF019A0A213046FFF7A4FF41
:10B15000D5F80C2E4C4B9A425DD04C4B9A424AD0BB
:10B160004B4B9A4262D04B4B9A426AD04A4B9A421E
:10B1700072D04A4B9A427AD049499088B1F88643B6
:10B18000B1F88433B1F88E532343B1F88843234395
:10B19000B1F88A4320F003002343B1F88C43000444
:10B1A000000C2343B1F8904390802B431088234335
:10B1B000B1F89243B1F8941300F441502343034390
:10B1C0009BB21380938B23F400631B041B0C9383AB
:10B1D000118213889BB243F04003138003B0BDE893
:10B1E000F083304A516A0B4353627CE72D4A116960
:10B1F0000B43136177E703F50033196A41F480418B
:10B200001962196A21F480411962B5E7254A116A69
:10B210000B43136267E703F58433596A41F48051A5
:10B220005962596A21F480515962A5E703F5FE334A
:10B23000196A41F400411962196A21F40041196246
:10B240009AE703F58233596A41F400515962596A09
:10B2500021F4005159628FE703F56843596A41F4BC
:10B2600080115962596A21F48011596284E703F50B
:10B270006443596A41F400115962596A21F400117A
:10B28000596279E7B81A00200030014000380040C8
:10B29000003C004000340140005001400054014097
:10B2A0008801002000380240431C00F074812DE921
:10B2B000F04F00EB8003BE4FDA0087B057F80290E2
:10B2C00081000546019107EBC303B9F1000F05D0DA
:10B2D0009C68002C00F02F81A17911B107B0BDE866
:10B2E000F08FD3F80CA0BAF1000F00F0A2819AF809
:10B2F0000630002BF2D11832B818D9F80480BB50B0
:10B30000691CC0E90133C3601523A371C9B21623B8
:10B31000E1718AF807108AF8063099F818005BF096
:10B32000FFF8B8F804302268A18823F440731B04A6
:10B330001B0CA8F80430DAF800301183BAF80420A6
:10B340001A8311212046FFF70DFD11215046FFF70A
:10B3500009FD09264FF0330B05E0BBF1010B00F0AE
:10B36000158114F02DFB0A20002CF6D02268A1884C
:10B3700013691942F1D05183052014F021FB236891
:10B38000A2881A83052014F01BFB013EE2D133266C
:10B3900004E0013E00F0308114F012FB0A20002C82
:10B3A000F7D02368A28819690A42F2D05A8305208F
:10B3B00014F006FBBAF1000F00F05D81DAF80030FE
:10B3C000BAF804205A83052014F0FAFA002C00F091
:10B3D00024812368A2881A83052014F0F1FADAF890
:10B3E0000030BAF804201A83052014F0E9FA236823
:10B3F000A2881B691A4240F0D580019B2B4407EBC1
:10B40000C3039A7C002A40F0CA801A7C122120468D
:10B41000FFF7FCFD019B2B4407EBC3039B7C002B38
:10B4200000F0C4803221BAF1000F07D0019B2B44F9
:10B4300007EBC30350465A7CFFF7E8FD5D4B984588
:10B4400000F028815C4B984500F02F815B4B9845BC
:10B4500000F03681019B2B4407EBC3074FF47A734E
:10B46000BC8A03FB04F4B8F8043023F440731B04D3
:10B470001B0CA8F80430B8F800309BB243F001036D
:10B48000A8F80030B8F8045002A857F009F825F0E1
:10B490003F0504994A4B2D04A3FB01232D0C45EADB
:10B4A0009345A8F80450B8F8002022F001021204D5
:10B4B000120CA8F80020434A980C9442034600F36B
:10B4C00083806200B1FBF2F292B20133042A38BFEA
:10B4D0000422A8F82030A8F81C20B8F800309BB24D
:10B4E00043F00103A8F80030B8F8003023F481637A
:10B4F00023F002031B041B0C4FF4804143F48063D0
:10B50000A8F80030A8F80810B8F8003023F080033D
:10B510001B041B0C0022A8F8003099F81A001146F1
:10B520005AF00CFE002299F81900114607B0BDE848
:10B53000F04F5AF003BED3F80CA0BAF1000F00F0A0
:10B54000D4809AF80630002B7FF4C8AE1832BB18AE
:10B55000D9F80480BC50C3E90144DC6016238AF8A2
:10B5600006306B1C8AF8073099F818005AF0D8FF9B
:10B57000B8F80430BAF8042023F440731B041B0C01
:10B58000A8F80430DAF800301A83DEE624B9052082
:10B5900014F016FAF6E67047A1882268EBE61A7CEA
:10B5A000322134E7DAF800301B6926E712213AE746
:10B5B000B81A00200054004000580040005C0040D1
:10B5C00083DE1B43A086010004EB4404B1FBF4F1CD
:10B5D0008AB2C1F30B0109B942F0010250494FF49C
:10B5E000967300FB03F3A1FB03139B09013342F4A1
:10B5F0000042A8F820306EE7002C40F08D80052036
:10B6000014F0DEF9BAF1000F65D0DAF80030BAF8BC
:10B6100004205A83052014F0D3F9052014F0D0F942
:10B62000DAF80030BAF804201A83052014F0C8F9BB
:10B63000F0E61832BB18D9F8048047F802A0C3E935
:10B6400001AAC3F80CA01523A371431CE37199F858
:10B6500018005AF065FFB8F80430A28823F440734C
:10B660001B041B0CA8F80430236811211A83204600
:10B67000FFF778FB6DE6052014F0A2F92368A28895
:10B680001A83052014F09CF9052014F099F9236819
:10B690001B69B2E603F5F2331A6A42F400121A6229
:10B6A0001A6A22F400121A62D4E603F5F0331A6A19
:10B6B00042F480021A621A6A22F480021A62C9E60F
:10B6C00003F5EE331A6A42F400021A621A6A22F48F
:10B6D00000021A62BEE6052014F072F9052014F08B
:10B6E0006FF9052014F06CF994E61832BB18D9F8FC
:10B6F000048047F802A0C3E901AAC3F80CA099F896
:10B7000018005AF00DFFB8F8043023F440731B04FE
:10B710001B0CA8F804301CE6A288236846E600BF8C
:10B72000D34D62102DE9F84307460FF03FFADFF8DA
:10B730004C8007EB8709044608EBC90542F20F76F7
:10B7400004E00FF033FA031BB3420ADC6B7E002BDC
:10B75000F7D108EBC90898F8180080F00100BDE89F
:10B76000F883B8F83C3E013338469BB2A8F83C3E1B
:10B77000FFF79AFD0020BDE8F88300BFB81A00204B
:10B7800010B582B08DF80730431C0CD00228044657
:10B7900009DC0DF107035AF069FE20B12046FFF7DE
:10B7A000C1FF02B010BD002002B010BD70B500EBAB
:10B7B0008003274D05EBC30255F833305C68A38A3C
:10B7C00084B09BB20393039B13F4706F1CBF0123DF
:10B7D0001376039B13F4E06F4FEA80060CD1A38A23
:10B7E000304423F4706305EBC0051B041B0C0022DE
:10B7F000A3826A7604B070BD238BA38823F4806390
:10B800001B041B0CA380039B9A05E8D423889B058B
:10B81000E5D42388D9050FD52388DA05FCD42388FD
:10B820009BB243F40073238023889B05FCD40190D2
:10B83000FFF73AFD0198D2E723889BB243F40073E7
:10B840002380A38823F440731B041B0CA380C6E74A
:10B85000B81A00200020A9E70120A7E70220A5E7E9
:10B860002DE9F84F2F4F00EB800407EBC404D4F808
:10B870000480B8F1000F04D09A46637E03F0FF09FC
:10B8800023B14FF000094846BDE8F88F0E469346B5
:10B8900005460FF08BF90A9B7600F6B2C4E908332F
:10B8A0000123A67684F81BB084F81D90A37784F852
:10B8B0001CA0637684F81890B8F804209105064619
:10B8C00022D4B8F80030DA0512D442F20F7404E042
:10B8D0000FF06CF9831BA3421ADCB8F800309B050B
:10B8E000F6D4B8F800309BB243F48073A8F8003067
:10B8F000B8F804309BB24FF0010943F44073A8F844
:10B9000004304846BDE8F88F99464846BDE8F88FB0
:10B91000B7F83C3E01339BB22846A7F83C3EFFF700
:10B92000C3FCB0E7B81A0020F8B590F871301C09D4
:10B93000013C052C0FD81B4E06EB4402054632F89D
:10B940006C0C03F00F0340FA03F2D20703D595F80D
:10B950007C70012F01D00120F8BD07FA03F3013BF1
:10B96000184034445EF0E8FC14F8602C0E4C10448F
:10B9700054F8302004EBC0041069A3881840EBD0C1
:10B98000EB6E002285F87C2093F8212020460221CE
:10B99000FFF73CFB2A6E93899BB243F008033846BD
:10B9A0009381F8BD40D306084C250020094BD3F8FD
:10B9B000402ED3F8441E40F22A40002350604B62D0
:10B9C0000B889BB243F001030B80136843F0010323
:10B9D00013607047B81A00201D4B1E48196C1E4A90
:10B9E00010B441F080510124196404625321FF24F2
:10B9F000CA205462506251625B6FDB0085B017D47D
:10BA000016480423002102910290029A1A440292DD
:10BA1000029A04331C2B1160F5D103910390039B10
:10BA20000393039B0E4A1A6005B05DF8044B704700
:10BA30000A4B002201920193019B0193019A084B4A
:10BA400012689A42DCD105B05DF8044B704700BF24
:10BA50000038024000000E420028004050280040FC
:10BA60003166654210B5174C84B00139002389B2A4
:10BA7000A042ADF80C30ADF806308DF80E300291D2
:10BA800013D0114B984210D003F5804398420CD04C
:10BA900003F58063984208D003F58063984204D090
:10BAA0000A4BD3F8B8375B0802E0084BD3F8B83735
:10BAB000B3FBF2F201A9013AADF8042056F05AFFA7
:10BAC00004B010BD0004014000000140B81A00207D
:10BAD00030B50446006EA268838923F400531B042A
:10BAE0001B0C8381637995B013F0040F4FF00001B4
:10BAF000019214BF4FF480520A46ADF808201A0391
:10BB00001B0203F48063ADF80C302379ADF80E10FE
:10BB100002F40052ADF80A20DA0744BF0422ADF85F
:10BB20000E209B07ADF8101005D5BDF80E3043F080
:10BB30000803ADF80E3001A957F02EF86279236E94
:10BB4000D50700F18B8012F0080F9A8A48D092B284
:10BB500042F008029A829A8992B242F400529A8183
:10BB60002279D00732D5E06B002800F089800023CD
:10BB7000E26D0893CDE90C33CDE91033CDE91233F2
:10BB80004FF480750A936369E1680E9506920793F6
:10BB9000626C05924FF480634FF480350B930991EA
:10BBA0000F9556F0CBFC05A9E06B56F05DFDE26BFE
:10BBB000216E136843F0010313608B8A9BB243F03C
:10BBC00040038B82536822799BB2636591070DD441
:10BBD000226E93899BB243F40053938115B030BD1C
:10BBE00022F008021204120C9A82B4E7206C00289A
:10BBF00052D02369A26D0993A36CCDE9053240238D
:10BC000000254FF4803108934FF480630B930F911C
:10BC1000CDE90C55CDE91055CDE9125507950A959A
:10BC20000E9556F08BFC206C05A956F01DFD236C7B
:10BC3000226E586940F080005861186840F0160084
:10BC400018605D60938A9BB243F0800302F10C019F
:10BC500093820B6843F040030B60BAE71E498B42A6
:10BC600024D0A1F54C418B421ED001F580618B425E
:10BC70001ED102200121FEF7D7FA6279236E62E716
:10BC80004FF6DF711980D96841F02001D960D96879
:10BC900041F01001D96099E7226ED36843F0800328
:10BCA00002F10C01D360D4E70120E3E70020E1E7D3
:10BCB00001F580618B420AD001F580618B4208D08A
:10BCC00001F544418B427FF43EAF0520D2E70320CB
:10BCD000D0E70420CEE700BF001001402DE9F84F67
:10BCE0004F4C04EB8004D4F82C4A002C00F08180E7
:10BCF000E56E002D79D01F46EB6A6361AB6AA361E4
:10BD00006B8EE3602B8E23616B682366454B23604B
:10BD1000454BA160A3660646204690460EF00CFAFD
:10BD200094F871000DF042FE814695F8200094F8D9
:10BD300070B0A24600284FD102213B0784F87C1046
:10BD400037D418F0020F11D0B9F1000F0ED00B2329
:10BD500089F806303A0606F1010389F807304AD41B
:10BD600095F8212048462221FFF750F918F0010FDD
:10BD700004D1E26B9AB15046BDE8F88F58460DF0F9
:10BD800015FE0028F5D00C220136C671827195F897
:10BD900021202221FFF73AF9E26B002AEBD195F836
:10BDA000241095F8220089095AF0C8F95046BDE8D8
:10BDB000F88F0136F6B2B9F1000FDAD00B2378060E
:10BDC00089F8076089F8063009D595F821204221C5
:10BDD0004846FFF71BF9CCE75AF0A2FBACE7FB069D
:10BDE00095F82120F4D41221F2E7AA465046BDE886
:10BDF000F88FA246BFE794F871000DF0D7FD226ED0
:10BE0000938923F008031B0401211B0C938184F800
:10BE10007C100028AAD02021FEF7A4FFA6E700BFCF
:10BE200004000010E8D2060829B90008BFF34F8FBC
:10BE30000549064BCA6802F4E0621343CB60BFF3C6
:10BE40004F8F00BFFDE700BF00ED00E00400FA05E2
:10BE500008B50021032056F089FC72B6FFF7E6FF13
:10BE600008B5184CD4F8482E94F84E0E4AB1116813
:10BE7000938809690B40F8B9003B18BF0123002BD8
:10BE8000F4D1142014F006F800BFD4F8483E63B192
:10BE90001A689B88116994F84E2E0B4042B9003BFA
:10BEA00018BF01230BB1FFF7D3FFFCF771FEEBE7DF
:10BEB000B3FA83F35B09F5E7B3FA83F35B09002B6D
:10BEC000D4D1DEE7B81A002008B572B6FFF7AEFF8E
:10BED00000B583B00D49002200920091009B0C3305
:10BEE0000093009B1B68012B02D003B05DF804FB9C
:10BEF00001920191019B06490C330193019B1A6049
:10BF00000B6883F308884B689847FEE75028004089
:10BF10000000FF1F38B5FFF75FFDFFF7D9FF0120D5
:10BF200056F034FC714A936823F0030393609368DE
:10BF300013F00C0FFBD113686C49002842D143F079
:10BF40000103136041F288330A6895075DD4013B11
:10BF5000FAD1674C674D654B674AEA60596F674A8B
:10BF6000C4F8681EAA60596B654821F080015963C6
:10BF7000596F41F080715967196B41F4CE01196313
:10BF80005A6B5A639A6B9A631A6C02431A64596C1F
:10BF90005C4A0A435A640EF0C1FDD4F8B8375A4AD5
:10BFA000A2FB03239B09013BB3F1807F09D24FF031
:10BFB000E022F02053610021072385F823009161DE
:10BFC000136138BD43F4803313600A68940341F26F
:10BFD000883304D4013BBCD00A689403FAD5444C9E
:10BFE0004A4A4B4BB0FBF3F3B0FBF2F0B3EB400F1C
:10BFF00018BF18464FF48002B3FBF0F3C4F8642E68
:10C00000C4F8500EC4F8543E09E0394C002108220F
:10C010000223C4F8641EC4F8502EC4F8543E022013
:10C0200056F0B4FB03280FD83A4BD4F8541E03EB58
:10C03000C0008588C2884388C4F85C5EB3FBF1F316
:10C04000C4F8602EC4F8583E284B33491A6C42F0AD
:10C0500080521A640A6842F440420A609A689A6000
:10C060009A6842F400429A609A6842F4A0529A6038
:10C07000D4F8640ED4F8502ED4F8581E024342EA85
:10C080008112D4F85C1ED4F8600E490842EA0062BE
:10C09000013942EA01425A601A6842F080721A601D
:10C0A0001A689201FCD51D4A40F205711160996829
:10C0B00021F003019960996841F00201A2F58062C4
:10C0C0009960936803F00C03082BFAD1D4F8540E4E
:10C0D0001349D823B3FBF0F39B0143F00053012035
:10C0E000C2F884308866FCF795FC33E700380240DC
:10C0F000B81A002000ED00E00005FA05000000205D
:10C10000FFC9FE36335F0700D34D621080841E00E6
:10C1100040420F0018D3060800700040003C024067
:10C120000000474210B584B000230446ADF80C303F
:10C130000068ADF806308DF80E3003F18043013908
:10C1400003F5823389B29842029114D0A3F580633B
:10C15000984210D003F5804398420CD003F58063D9
:10C16000984208D003F58063984204D0204BD3F85E
:10C17000B8375B0802E01E4BD3F8B837B3FBF2F3D5
:10C1800001A9013BADF8043056F0F4FB2168194ACF
:10C190000B8819489BB243F001030B80002301E098
:10C1A00050F83320914208D001330E2BF8D10020F3
:10C1B00004B0BDE81040FCF78BBB104A02EBC30390
:10C1C00093F8E94C2046FCF783FB1B2C05D1192082
:10C1D00004B0BDE81040FCF77BBB2E2C08BF2C2020
:10C1E00004D104B0BDE81040FCF772BB04B010BD30
:10C1F000B81A0020000001402CCF060848C20608EB
:10C2000070B50468A30AA3F58013522B51D83C4D96
:10C210002B4493F8F4530D2D4BD840798608002910
:10C2200054D005EB850305EB4303B4F80CE04FEA6B
:10C23000900C33440220334E00FA0CF040EA0E001A
:10C2400006EB830C80B2CCF85015CCF86025A081A9
:10C25000EFF3118C502383F312882C2305FB03F397
:10C26000F118D1F84C2562B3274BC1F87025043280
:10C2700026482C2105FB01F1084414310B4453F8E6
:10C28000041B19B1116053F8042C04329842F6D102
:10C2900000235FFA8CFC13608CF311882C2303FBC2
:10C2A0000565D5F870352BB1A3899BB243F0010326
:10C2B000A38170BDA38923F001031B041B0CA38180
:10C2C00070BD03F12402104B1A44D1E7B4F80CC03E
:10C2D00005EB8503304605EB43034FF0020E334474
:10C2E0001FFA8CFC074E0EFA00F02CEA0000A08129
:10C2F00006EB8300C0F85015C0F86025A8E700BF22
:10C3000048C20608B81A0020042000202820002077
:10C3100001490248FDF7E2B9042000200000014075
:10C3200010B5064C064804F24C51FDF7D7F904F558
:10C33000DB610448BDE81040FDF7D0B9B81A002011
:10C34000000001400044014002494FF08040FDF7E9
:10C35000C5B900BF3020002001490248FDF7BEB931
:10C360005C2000200004004001490248FDF7B6B9F6
:10C37000882000200008004001490248FDF7AEB9BE
:10C38000B4200020000C004001490248FDF7A6B986
:10C39000382100200004014010B5064C064804F581
:10C3A000D061FDF79BF904F25C710448BDE81040D0
:10C3B000FDF794B9B81A002000040140001C0040A9
:10C3C00001490248FDF78AB964210020004001407C
:10C3D00001490248FDF782B9BC2100200048014014
:10C3E00001490248FDF77AB9E82100200018004011
:10C3F00001490248FDF772B94022002000200040A8
:10C4000010B50C2937D8DFE801F097363636663696
:10C410003636373636360700038C5488B2F80CE0CF
:10C4200023F480531B041B0C0384038CB0F804C05A
:10C43000818B21F4E6414EEA040E0904148823F4AA
:10C440000053090C41EA04211B04754C1B0C43EA00
:10C450000E33A0421FFA8CFC9BB289B200F0AE8072
:10C4600004F58064A04200F0A9809268A0F804C09E
:10C4700081830264038410BD038CB2F80CC054881D
:10C4800023F480731B041B0C0384038CB0F804E0BA
:10C49000818B23F400731B044CEA040C21F073011C
:10C4A0001B0C43EA0C230904B2F800C0090C41EA52
:10C4B0000C0C5B4988421FFA8EFE9BB268D001F5D6
:10C4C0008061884264D09268A0F804E0A0F81CC0A3
:10C4D000C263038410BD038CB2F80CC0548823F0EF
:10C4E00010031B041B0C0384038CB0F804E0018BC5
:10C4F00023F020031B044CEA040C21F4E6411B0C3E
:10C5000043EA0C130904B2F800C0090C41EA0C21FB
:10C510001FFA81FC424988421FFA8EFE9BB269D005
:10C5200001F58061884265D09268A0F804E0A0F827
:10C5300018C08263038410BD038C5488B2F80CE0E9
:10C5400023F001031B041B0C0384038CB0F804C00C
:10C55000018B21F073014EEA040E0904148823F0C4
:10C560000203090C1B0421432D4C1B0C43EA0E0350
:10C57000A0421FFA8CFC9BB228D004F58064A04234
:10C5800024D09268A0F804C001834263038410BDE4
:10C59000D189548A23F4006343EA0121138A2EF4DB
:10C5A000405E23434EEA031E94884FF6FF330B4050
:10C5B00043EA04231FFA8EFE9BB284E7148A2CF40C
:10C5C000804C4CEA841C1FFA8CFC4EE7D489B2F8EC
:10C5D00010E023F008032343548A2CF4407C4EEAF5
:10C5E000040E948823F004034CEA0E0C1FFA8CFC12
:10C5F0002343C6E7D189548A23F0800343EA01111B
:10C60000138A2EF4406E23434EEA830E94884FF62D
:10C61000BF730B4043EA04131FFA8EFE9BB283E7FD
:10C62000000001402DE9F04FA24BDFF8A49293F8EF
:10C630007E3EA14EA14F8FB0CDE90139013BDBB267
:10C6400000930025DFF88CB2DFF88CA25B46D3465E
:10C650009A464FEA9A23A3F58013522B4CD83344C1
:10C6600093F8F4330D2B47D8FC56019B012B40F077
:10C670000181012C35D14FF000084146204614F0CD
:10C6800013F814F09FF8037813B1542B40F0F9809D
:10C6900008F104081FFA88F8B8F1100FEDD14FF037
:10C6A000000E8DB3494600200CE0334493F8F43378
:10C6B0000D2B0ED8FB56A3420ED00130A84201F537
:10C6C00080711EDA8A6813689B0AA3F58013522BC7
:10C6D000EBD90023A342F0D153799BF805209A426D
:10C6E000EBD1774B5B454BD05BF81CAF4FEA9A23FD
:10C6F000A3F58013522BB2D9009B012BF1D9002452
:10C70000B9E7BEF1000FECD15846FBF74BFEC3B2C0
:10C71000022B9BF805C000F23483431C5BB203EB91
:10C7200043034FEA830E644B664903F5727004E0DD
:10C73000984200F0268353F82C1F5145F8D11A79FE
:10C740006245F5D153F80E40002CF1D05E4800232D
:10C750004268A24203F1010300F08980102B00F12E
:10C760002400F5D14FF0FF33584A03EBC30302EB2B
:10C77000830393F86031002BB3D1029BC3F808B058
:10C78000029B013503F58073042D02937FF45AAFA9
:10C79000DFF848B10BF59E730027ABF5816A984628
:10C7A000DAF8243ABB425FDDDBF80C50002D5BD099
:10C7B0009BF81030A88802932B68DAF80460019384
:10C7C00003F13F41B0FA80F301F57E010393002E9F
:10C7D000C3F11F034FEA9121009340F384800023AB
:10C7E00002E00133B3427BD01C0259F804208A4294
:10C7F000F7D14C440099029B8BF810300326013787
:10C80000CBF80410CBF80C50CBF81840AE71EF7198
:10C81000636CE26C0D4649008E401E43012303FA0F
:10C8200001F111439AF800206664E1647AB303FAD7
:10C8300005F11A46236D0B432365019B89B21883CA
:10C84000D4F8A000FBF7EAFD2046FBF73DFF0123EB
:10C85000082F8BF81C308BF81D3088F811300BF145
:10C86000200B08F118089BD10FB0BDE8F08FDBB2A8
:10C87000013B79E7022B7FF4FEAE082C3FF4FBAEC0
:10C880002FE74FF0010E002D7FF40CAF29E703993D
:10C89000C1F12F05009903FA05F58B4099B2236D7C
:10C8A0002B432365019B5883D4F8A000FBF7B6FD0A
:10C8B000CAE700BFB81A002048C206080456070895
:10C8C00018D4060800000140CC0200208801002096
:10C8D0000C0000100004014038D306080C040010BE
:10C8E000032B00F31F820AEB06233202186904921D
:10C8F000002800F03F8299600131CAB283F8052117
:10C900000692542283F80421013602680592447984
:10C91000CAF80460FBF746FD934AC3B2022B92F8B3
:10C9200095EE844600F22D82461C76B206EB460652
:10C930008E498F48059AB600002305E00133172B76
:10C9400000F01F8251F82C0F8242F7D10879A042E3
:10C95000F4D188590028F1D02C2101FB03F30CEB12
:10C960004C0C03EB8C0C814B63441969049B5344BE
:10C97000C3E906017F4B00211E461C4663689842AE
:10C9800016D00131102904F12404F7D17A4B93F821
:10C990003C21002A00F0E7817849794A794BCAF8AE
:10C9A000681ACAF8602ACAF8703A0FB0BDE8F08F6A
:10C9B00001F1010C5FFA8CFC6F4B07960CF1FF3C08
:10C9C0000CEBCC0C03EB8C0C9CF860310593002B2A
:10C9D000E2D1049E069B8CF86131F31103EB262013
:10C9E00000EB001368488C2400EB83003112674B86
:10C9F00004FB01F103EB41010AEB0603C3E93C141C
:10CA00005421019E8CF860113321C3F8AC10DE6014
:10CA1000C3F8A8005E4B04999A4209EB010400F0A8
:10CA20007681534B9A4200F0728103F580439A421B
:10CA300000F06D8103F580639A4200F0688103F590
:10CA400080639A4200F06381474BD3F8B807BEF188
:10CA5000060F4FEA500000F061814E4B4E49BEF187
:10CA6000070F18BF9C464D4B08BF8C464C4918BF5A
:10CA70001946B0FBF1F1B0FBFCFC1046049A0139F9
:10CA80000AEB020389B20CF1FF3CA3F8B0C0A3F893
:10CA900068104FF000060193A165002302F15401D4
:10CAA0004944A4F85C60636555F064FF019B3D4A0E
:10CAB0001B690193186803889BB243F080030380CD
:10CAC000038809920A210B914FF48072022123F00E
:10CAD0000103CDE90C121B04ADF828601B0C019E6C
:10CAE0000380717909AAFFF78BFC3079002840F0A8
:10CAF0002281049B079E0AEB030200231069D2F8EF
:10CB000018C001680A8892B242F001020A80726875
:10CB1000944503F1010300F00A81102B06F124066D
:10CB2000F5D14FF0FF33144A1F4E03EBC30302EB62
:10CB300083031E4AD3F84431B3420CBF4FF40013B1
:10CB40004FF48003166B33431363427918480C2A61
:10CB50009BBF184B03EB42030026B3F8F460049B21
:10CB600053449E8200232EE0B81A002048C20608D3
:10CB700000000140CC02002088010020896F0108DC
:10CB8000856F0108916F010850290020802C00203A
:10CB9000000401404495080010552200D0DD060035
:10CBA00040771B0060000100006002400038024036
:10CBB0001406001040D30608914200F0E0800133D3
:10CBC000042B00F0E18050F83320002AF4D1DAF889
:10CBD0000C260132CAF80C260AEBC302DB00C2F8AD
:10CBE000101603446A499A88059816439E80049B50
:10CBF0000AEB030690222346FDF7C0FFB0690268E6
:10CC0000002342F010020260C4E92533A367C4F890
:10CC10008830C4F89C30F26962664FF48062E26743
:10CC200004214FF40032C4E9232140222267D6F8C0
:10CC3000AC206267F268049B1832A2664FF48052FF
:10CC4000C4F88020D6F8A820E26603F164014FF40E
:10CC500080424944C4F8842055F006FDB069049B25
:10CC6000D0F800E0C4F81CE0D0F814E0C4F820E0EC
:10CC7000D0F804E0C4F824E003F1AC01D0F808E0F7
:10CC8000C4F828E00023D0F80CE0C4F82CE0C4E994
:10CC90003733C4F8B830C4F8C030C4F8D030C4F862
:10CCA000E430F369C4F8AC304FF48063C4F8C430A6
:10CCB0004FF4403C0423C4E935C3D6F8F430C4F83B
:10CCC000BC30F3681033C4F8B0304FF40063C4F8DC
:10CCD000C830D6F8F030C4F8B4304FF48042C4F80D
:10CCE000CC20494455F0C0FCB369A8881A68226377
:10CCF0005A6962635A68A2639A68E263DA682264D6
:10CD00001A6842F010021A602B68019372E5214BF9
:10CD1000BEF1060FD3F8B8077FF49FAEDFF87CC0F2
:10CD20001D49A6E61B4A032382F8943E34E6DBB293
:10CD30000593013BF7E60CF039FE069038B1019BF4
:10CD40000221DA79FEF762F9069B5422DA80019B10
:10CD50001A68B2F844306FEA43436FEA53439BB218
:10CD6000A2F84430C5E6542283F83C21069A83F8A1
:10CD70003D2111E6074A022382F8943E0CE6DB00CF
:10CD80002FE700235B68FFDE00239B88FFDE00BFE8
:10CD900065840008B81A0020A0BB0D00882A110085
:10CDA0000C2911D8DFE801F0231010101910101011
:10CDB000111010100700838B23F400631B041B0C5D
:10CDC00043EA022292B282837047838B23F00803E6
:10CDD0001B041B0C1A4382837047038B23F40063EC
:10CDE0001B041B0C43EA022292B202837047038B9E
:10CDF00023F008031B041B0C1A430283704700BF77
:10CE00002DE9F04FDFF870B29BF8004087B024B9ED
:10CE10000124204607B0BDE8F08F934ED6F80C5899
:10CE20000DF0F2FE9BF8B43A0390002B00F058820C
:10CE30008E4AA2FB05328E4B5209A3FB0213DB087C
:10CE400003EB8303A2EB4303DAB204920BF23C62DE
:10CE500002EB830300930BF61C1306F1E404019329
:10CE60004FF00009924635E03B680293009B5C332B
:10CE70000093019B30461433019355F05FFB7A4BCE
:10CE800002988C2202FB0933002583F8D850797967
:10CE90002A46FFF785FF22467979FFF7B1FA7979BB
:10CEA0000822FFF77DFF402344F83C3CA4F14801F1
:10CEB000304655F0D9FB336843F0100333609BF8DC
:10CEC000B43A09F1010999450AF15C0A04F18C04AC
:10CED00080F2D480DBF83836039AD31A04D454F89D
:10CEE000082C9342C0F2AB815F4B54F8587C266A01
:10CEF0008C2202FB093393F8D830002BB4D0396868
:10CF0000736834F8542C02911FFA83FE8B89CEF19A
:10CF1000160E9BB223EA0203BEF1070F8B81A5D93F
:10CF2000DBF824390133CBF82439A36A05939C46F6
:10CF300000225CF8045B012190461BE0DCF8000055
:10CF4000B8F1140FA0EB05031DDC13F1080548BF71
:10CF500003F117052B1108EB25180546581E013162
:10CF600002FA03F3012282408E4542EA03020CF1E9
:10CF7000040C08D38E45E1D8C8F11503DCF8005045
:10CF80004FF01508EAE7B8F1150F60D13948C2F340
:10CF90008423C2F3441100EB830300EB8101D3F837
:10CFA0001031D1F810111B0243EA011302F01F01E6
:10CFB00000EB8101C2F3C43200EB8202D1F8101100
:10CFC000D2F810210B4343EA023383EA132282EAA8
:10CFD000121202F00F020F2A39D1C3F30F134FF6CA
:10CFE000FF72934233D0B3F5606F00F03681019A3F
:10CFF00093819AF85820049DAA4211D00098DAF83B
:10D0000000208168521ACAF80020016BDAF8042067
:10D01000521ACAF804200022826002638AF858502B
:10D02000DAF8002000990132CAF800208A6801323B
:10D030008A604FF6FF7293427FF418AFDAF804303B
:10D040000133CAF804300B6B01330B630EE7DBF8D6
:10D0500020390133CBF82039B9F1000F00F0E58019
:10D060004FF6FF73C5E700BFB81A00201F85EB51CC
:10D07000CDCCCCCC40D306080400001001228BF8A4
:10D08000202ACBF83856002B3FF4C2AE974890F8D0
:10D090009410890700F1BE80D0F88C100868497997
:10D0A0008A40018C92B289B221EA02010184018C8A
:10D0B00089B20A43012B02843FF4AAAE8B4991F84E
:10D0C0002021970700F1C080D1F818211068547909
:10D0D000018C012289B2A24092B221EA02010184AC
:10D0E000018C89B20A43022B02843FF491AE7F493E
:10D0F00091F8AC21960700F1C180D1F8A421106805
:10D100005479018C012289B2A24092B221EA020133
:10D110000184018C89B20A43032B02843FF478AE68
:10D12000724991F83822950700F1B180D1F8302288
:10D1300010685479018C012289B2A24092B221EA8E
:10D1400002010184018C89B20A43042B02843FF45A
:10D150005FAE664991F8C422940700F1A180D1F82E
:10D16000BC2210685479018C012289B2A24092B28B
:10D1700021EA02010184018C89B20A43052B028451
:10D180003FF446AE594991F85023900700F1918041
:10D19000D1F8482310685479018C012289B2A24049
:10D1A00092B221EA02010184018C89B20A43062B62
:10D1B00002843FF42DAE4D4991F8DC23920700F133
:10D1C0008180D1F8D42310685479018C012289B26E
:10D1D000A24092B221EA02010184018C89B20A4381
:10D1E000082B02847FF414AE404A92F868349B07FF
:10D1F00071D5D2F860240423116850790A8C8340D9
:10D200009BB292B222EA03020A840A8C92B21343BE
:10D210000B84FDE5354AD2F88C2010685479018CD6
:10D220000422A24089B292B23EE7059930485822C2
:10D230005EF042FF3B6802934FF6FF73D9E600248D
:10D24000204607B0BDE8F08F284AD2F818211068B0
:10D250005479018C042289B23DE7244991F8E524F0
:10D2600002EB420201EBC2024A4492F8F5240D2A75
:10D270007FF4BDAE019980228A77BAE61B4AD2F8C4
:10D28000A42110685479018C042289B23CE7174A22
:10D29000D2F8302210685479018C042289B24CE70C
:10D2A000124AD2F8BC2210685479018C042289B247
:10D2B0005CE70E4AD2F8482310685479018C0422A6
:10D2C00089B26CE7094AD2F8D42310685479018CEA
:10D2D000042289B27CE7054BD3F8602401238BE755
:10D2E00001228BF8202ACBF8383692E5B81A0020B4
:10D2F000CC0900102DE9F04F002299B02F210746EC
:10D3000013F0B6FA00B3BE4ED0F80080C6F8448ED3
:10D310000446FDF737FB0246B0B1D0F804C0C6F8AA
:10D3200040CEBCF1000F0FD0B64D0023294648680F
:10D33000844501F1240103F101030FD0102BF6D134
:10D34000B14B93F83C0118B1002019B0BDE8F08F43
:10D350002F2283F83C2183F83D01F6E7DBB2DFF8AA
:10D36000A892013B03EBC30309EB830393F860A18D
:10D37000BAF1000FE8D138469768DFF8C0B22F2223
:10D38000A3F860210CF012FB2F220346CBF83405E2
:10D3900020B1DA80E2792A21FDF738FE9B4A9C49C8
:10D3A000002301E051F83320904500F02281013341
:10D3B0000E2BF7D1002059F0B3F8D6F8440E954A59
:10D3C000038823F001031B041B0C9042038000F030
:10D3D00070818E4B984216D003F58043984212D04C
:10D3E00003F5806398420ED003F580639842D6F827
:10D3F000B8270AD08849B1EB520F4FEA520340F2E6
:10D40000528100210AE0D6F8B827834B9A4280F077
:10D4100017814FF0010C0021B2FBFCF37F4AADF8FD
:10D4200004101B0A7E49A2FB03231A09A1FB021266
:10D4300052084FF000081B09ABF8322501A9520031
:10D440000293ABF83025ADF80C80ADF806808DF86E
:10D450000E8055F08FFACDE90688CDF82080A379AB
:10D46000ADF81480602204929A0740F1AF80DB008F
:10D4700003F00803ADF81E300423ADF81430D6F8DD
:10D48000440E617904AAFEF7BBFF61790822FFF719
:10D4900087FCB0F84430D6F8408E6FEA43436FEA19
:10D4A00053439BB2A0F8443003889BB243F08003FF
:10D4B0000380A3796179028C9B074CBF042301236D
:10D4C0008B409BB292B222EA03020284028C92B297
:10D4D0001343038403889BB243F0010303802A466D
:10D4E00000235168884502F1240203F101037DD035
:10D4F000102BF6D14FF0FF3303EBC30309EB830985
:10D50000484AD9F8443148498B420CBF4FF40013C4
:10D510004FF48003116B0B43136300236A6890453B
:10D5200005F1240503F101035DD0102BF6D13F492D
:10D53000602200235046FDF721FB404654F0FEFFD9
:10D54000D6F8400E036823F001030025036054F071
:10D55000F5FFCDE91455CDE91655D6F8443E0E95A4
:10D5600012956279D6F8400E099734331344304A45
:10D570000B9240220A930C924FF480434FF4805256
:10D58000CDE9102340F22A414FF440330D9113931B
:10D5900009A94FF480630F9355F066F86379D6F8C4
:10D5A000441E0C2B04D8234A02EB4303B3F8F45077
:10D5B0008B89D6F8402E9BB21D438D8113680120C4
:10D5C00043F01003136019B0BDE8F08F5B0003F067
:10D5D0000203ADF81C300123ADF812304FF4807314
:10D5E000ADF820304BE75FFA83FAA0E7DBB2013BEE
:10D5F00082E7114A02EBC30393F8E80CDBE600BFB5
:10D60000B81A0020CC020020880100200000014050
:10D610002CCF060800040140006CDC02598B4F013E
:10D62000ABAAAAAA00380240006002401D87000889
:10D630004899002040D3060848C20608B02B0020B5
:10D64000254B98420BD003F58043984207D003F551
:10D650008063984203D003F58063984222D102F19F
:10D66000B7731E4903F55853A1FB03139B0D013BF0
:10D6700099B2194B984201F1010C3FF4CDAE03F57C
:10D68000804398423FF4C8AE03F5806398423FF46C
:10D69000C3AE03F5806398423FF4BEAE5308B3FBBC
:10D6A000FCF3BBE6530803F1B7730C4903F5585379
:10D6B000DAE7D6F8B8270A4B9A42FFF4AAAE074930
:10D6C00002F1B77303F55853A1FB03139B0D013B04
:10D6D00099B201F1010C9FE600000140819F5E16A6
:10D6E000006CDC02F0B50C4689B03C49BDF83860EE
:10D6F0009DF83C70013B054620689BB2049388422C
:10D700004FF00003ADF81430ADF80E308DF8163040
:10D7100013D0334B984210D003F5804398420CD07D
:10D7200003F58063984208D003F58063984204D0E3
:10D730002C4BD3F8B8375B0802E02A4BD3F8B83744
:10D74000B3FBF2F203A9013AADF80C2055F012F93F
:10D7500020686179A3790FB183F001030022CDE93C
:10D760000622ADF81020602203929A0729D5DB002B
:10D7700003F00803ADF81A300423ADF8103003AA03
:10D7800001910596FEF73CFE01990822FFF708FB80
:10D790002268B2F844306FEA43436FEA53439BB2C6
:10D7A000A2F84430138811469BB243F0010321F8DC
:10D7B000343B63796A60C81800222860CA5009B0F7
:10D7C000F0BD5B0003F00203ADF818300123ADF8A3
:10D7D0000E304FF48073ADF81C30D0E700040140E8
:10D7E00000000140B81A002010B4104A92F8B43773
:10D7F00003F0FF01002BF9D10D4B0E4CD3F8380587
:10D8000054F8644CB3F84C354FF0010C82F8B4C7AF
:10D810004360616223889BB243EA0C032380036860
:10D820005DF8044B43EA0C0303607047B81A00200C
:10D83000B02B0020A83C00201648174A174938B5DD
:10D84000174C184D121A5EF037FCD4F88820164B8E
:10D85000164842F47002C4F888201A68002142F089
:10D8600001021A6099601A6822F0847222F48032F0
:10D870001A6058601A6822F480221A600C4AD96033
:10D88000521B28460B495EF017FCA560BDE83840E6
:10D89000FBF7C0B80000001004000010870D080856
:10D8A00000ED00E0000000200038024010300024AD
:10D8B00088010020000000080548D0F8C83723B1CF
:10D8C000DB6A13B100F5F96018470248704700BFE2
:10D8D000B81A0020D0D4060838B5184C54F8603C6B
:10D8E0001B8843B9164D002304F8543C85F8C03713
:10D8F000C5F8BC3738BD54F85C2C002AF2DD012A8B
:10D9000009D054F8583C59880D4D24F8521C012375
:10D9100004F8503CE7E754F8581C8A8849880132DB
:10D92000521A9A42F0D1064DD5F8C83700221B6929
:10D93000C5F8F42705F5F9609847D4E7A83C00201E
:10D94000B81A00200748D0F8C4371BB1064B13F8AB
